{
  "_format": "hh-sol-artifact-1",
  "contractName": "Lock",
  "sourceName": "contracts/Lock.sol",
  "abi": [
    {
      "inputs": [
        {
          "internalType": "uint256",
          "name": "_unlockTime",
          "type": "uint256"
        }
      ],
      "stateMutability": "payable",
      "type": "constructor"
    },
    {
      "anonymous": false,
      "inputs": [
        {
          "indexed": false,
          "internalType": "uint256",
          "name": "newUnlockTime",
          "type": "uint256"
        }
      ],
      "name": "LockExtended",
      "type": "event"
    },
    {
      "anonymous": false,
      "inputs": [
        {
          "indexed": false,
          "internalType": "uint256",
          "name": "amount",
          "type": "uint256"
        },
        {
          "indexed": false,
          "internalType": "uint256",
          "name": "when",
          "type": "uint256"
        }
      ],
      "name": "Withdrawal",
      "type": "event"
    },
    {
      "inputs": [
        {
          "internalType": "uint256",
          "name": "newUnlockTime",
          "type": "uint256"
        }
      ],
      "name": "extendLock",
      "outputs": [],
      "stateMutability": "nonpayable",
      "type": "function"
    },
    {
      "inputs": [],
      "name": "owner",
      "outputs": [
        {
          "internalType": "address payable",
          "name": "",
          "type": "address"
        }
      ],
      "stateMutability": "view",
      "type": "function"
    },
    {
      "inputs": [],
      "name": "unlockTime",
      "outputs": [
        {
          "internalType": "uint256",
          "name": "",
          "type": "uint256"
        }
      ],
      "stateMutability": "view",
      "type": "function"
    },
    {
      "inputs": [],
      "name": "withdraw",
      "outputs": [],
      "stateMutability": "nonpayable",
      "type": "function"
    }
  ],
  "bytecode": "0x608060405260405161048d38038061048d83398101604081905261002291610064565b80421061004a5760405162461bcd60e51b81526004016100419061007c565b60405180910390fd5b600055600180546001600160a01b031916331790556100bf565b600060208284031215610075578081fd5b5051919050565b60208082526023908201527f556e6c6f636b2074696d652073686f756c6420626520696e207468652066757460408201526275726560e81b606082015260800190565b6103bf806100ce6000396000f3fe608060405234801561001057600080fd5b506004361061004c5760003560e01c8063251c1aa3146100515780633ccfd60b1461006f57806344ee3a1c146100795780638da5cb5b1461008c575b600080fd5b6100596100a1565b604051610066919061034f565b60405180910390f35b6100776100a7565b005b61007761008736600461023c565b610171565b61009461022d565b6040516100669190610254565b60005481565b6000544210156100d25760405162461bcd60e51b81526004016100c990610268565b60405180910390fd5b6001546001600160a01b031633146100fc5760405162461bcd60e51b81526004016100c990610321565b7fbf2ed60bd5b5965d685680c01195c9514e4382e28e3a5a2d2d5244bf59411b93474260405161012d929190610358565b60405180910390a16001546040516001600160a01b03909116904780156108fc02916000818181858888f1935050505015801561016e573d6000803e3d6000fd5b50565b60005481116101925760405162461bcd60e51b81526004016100c9906102da565b6301e13380600054826101a59190610366565b11156101c35760405162461bcd60e51b81526004016100c990610298565b6001546001600160a01b031633146101ed5760405162461bcd60e51b81526004016100c990610321565b60008190556040517f2d3b38a507b3fb0ee1aaa054f2d952d0ac517f18f1cba8857c1b0e2ed9d5dbd99061022290839061034f565b60405180910390a150565b6001546001600160a01b031681565b60006020828403121561024d578081fd5b5035919050565b6001600160a01b0391909116815260200190565b602080825260169082015275165bdd4818d85b89dd081dda5d1a191c985dc81e595d60521b604082015260600190565b60208082526022908201527f4c6f636b20657874656e73696f6e2063616e277420657863656564203120796560408201526130b960f11b606082015260800190565b60208082526027908201527f4e657720756e6c6f636b2074696d652073686f756c6420626520696e207468656040820152662066757475726560c81b606082015260800190565b6020808252601490820152732cb7ba9030b932b713ba103a34329037bbb732b960611b604082015260600190565b90815260200190565b918252602082015260400190565b60008282101561038457634e487b7160e01b81526011600452602481fd5b50039056fea264697066735822122095689d0a676a1cb74293163e97a7bc56ed4e8d31c0607d185dda1ef51e6d7caf64736f6c63430008010033",
  "linkReferences": {},
  "deployedLinkReferences": {}
}